:100000000C942A000C9447000C9447000C94470071
:100010000C9447000C9447000C9447000C94470044
:100020000C9447000C9447000C9447000C94470034
:100030000C9447000C947C000C94A6000C94470090
:100040000C9447000C9447000C9447000C94470014
:100050000C94470011241FBECFE5D8E0DEBFCDBF12
:1000600010E0A0E6B0E0E4EBF4E002C005900D92F1
:10007000A63DB107D9F711E0A6EDB0E001C01D9291
:10008000AC36B107E1F70E9473000C9458020C944F
:1000900000000E943F0178940E9410028FEF9FEFB2
:1000A00024E630E0F9013197F1F70197D9F78FEFA6
:1000B0009FEF24E630E0F9013197F1F70197D9F786
:1000C0008FEF9FEF24E630E0F9013197F1F70197C8
:1000D000D9F78FEF9FEF24E630E0F9013197F1F780
:1000E0000197D9F708950E9449000E94E0010E94FB
:1000F0005D010E94A501FFCF1F920F920FB60F92D4
:1001000011242F938F939F93EF93FF939BB12CB167
:10011000E0911801EF5FEF7180911901E81711F478
:1001200082E008C0892F8871E0931801F0E0EA505E
:10013000FF4F208380931A01FF91EF919F918F9140
:100140002F910F900FBE0F901F9018951F920F9236
:100150000FB60F9211248F939F93EF93FF9390917B
:10016000160180911701981761F0E0911701EF5F78
:10017000EF71E0931701F0E0EA52FF4F80818CB9F4
:1001800001C05598FF91EF919F918F910F900FBEF5
:100190000F901F9018959C01109216011092170154
:1001A000109218011092190197FF03C082E08BB9D9
:1001B0003F7730BD29B988E98AB986E880BD0895BE
:1001C0009091180180911901981719F420E031E0FD
:1001D00012C0E0911901EF5FEF71E0931901F0E0B7
:1001E000EA50FF4F308120911A01922F80E0AC013C
:1001F000430F511D9A01C9010895282F90911601AE
:100200009F5F9F71809117019817E1F3E92FF0E04C
:10021000EA52FF4F208390931601559A0895DC010E
:1002200011C0909116019F5F9F71809117019817DF
:10023000E1F31196E92FF0E0EA52FF4F208390930B
:100240001601559A2C91222361F70895AC0110C034
:10025000209116012F5F2F71809117012817E1F36C
:10026000E22FF0E0EA52FF4F908320931601559A57
:10027000FA014F5F5F4F9491992351F7089580E3FE
:1002800095E724E630E0F9013197F1F70197D9F7C6
:10029000A69AAE9880E395E724E630E0F90131971D
:1002A000F1F70197D9F7A698089508958DE00E9477
:1002B000FD008AE00E94FD00089580E690E00E9423
:1002C0000F010E94560188E893E124E630E0F9012D
:1002D0003197F1F70197D9F70895EF92FF920F93B5
:1002E0001F93DF93CF93CDB7DEB764970FB6F89423
:1002F000DEBF0FBECDBF00E010E07E010894E11C20
:10030000F11C0E94E00021E080309207D1F38D3093
:1003100021F401151105A9F309C08A3091F3F70101
:10032000E00FF11F80830F5F1F4FEBCFCE010196CF
:1003300064960FB6F894DEBF0FBECDBFCF91DF91AC
:100340001F910F91FF90EF90089588E790E00E9431
:100350000F010E94560188E893E124E630E0F9019C
:100360003197F1F70197D9F78AE10E94FD000E94C9
:100370006D010895AB0124E830E020938901BC01B0
:100380008BE691E00E943A02809389016EE870E06A
:100390008BE691E00E942F02809389018BE691E029
:1003A0000E940F010E94560188E893E124E630E0A4
:1003B000F9013197F1F70197D9F70E946D0108957E
:1003C00080E990E00E940F010E94560188E893E1C5
:1003D00024E630E0F9013197F1F70197D9F70E944F
:1003E0006D010895CF93DF93C4E6D0E08AE990E0F1
:1003F0000E940F010E94560180E395E7FE013197AC
:10040000F1F70197D9F70E946D014AE050E068EBDF
:1004100070E00E944A02009749F7DF91CF9108955A
:1004200089E190E00E94CB0088E893E124E630E087
:10043000F9013197F1F70197D9F783EA90E00E942B
:100440000F010E94560188E893E124E630E0F901AB
:100450003197F1F70197D9F70E946D010895FB01DB
:10046000DC010D900020E9F7119701900D9200201A
:10047000E1F70895FB01DC010D900020E9F71197E9
:100480004150504028F0019000200D92C9F7089586
:100490001C920895FB01DC014150504030F08D91D9
:1004A0000190801919F40020B9F7881B990B089561
:0404B000F894FFCFEE
:1004B40041542B434D47533D222B33373534343786
:1004C400373437303234220073696D393030207458
:1004D4006573740041542B435042463D2200220070
:1004E40041542B434D47463D310041542B43524523
:1004F400473F0041542B4950523D39363030004F6C
:100504004B004552524F52002B435245473A20303C
:100514002C31002B435245473A20302C32002B43D8
:060524004D47533A200090
:00000001FF
